:020000040800F2
:10000000C806002029020008B7150008EB130008F5
:10001000B51500081F04000867190008000000005B
:10002000000000000000000000000000BB150008F8
:100030002104000800000000B9150008BD150008E3
:10004000430200084302000843020008430200087C
:10005000430200084302000843020008430200086C
:10006000430200084302000843020008430200085C
:10007000430200084302000843020008430200084C
:10008000430200084302000843020008430200083C
:10009000430200084302000843020008430200082C
:1000A000430200084302000843020008430200081C
:1000B000430200084302000843020008430200080C
:1000C00043020008430200084302000843020008FC
:1000D00043020008430200084302000843020008EC
:1000E00043020008430200084302000843020008DC
:1000F0004302000843020008891600084302000872
:1001000043020008430200084302000843020008BB
:1001100043020008430200084302000843020008AB
:10012000430200084302000843020008430200089B
:10013000430200084302000843020008430200088B
:10014000430200084302000843020008430200087B
:10015000430200084302000843020008430200086B
:10016000430200084302000843020008430200085B
:100170004302000843020008430200080000000098
:10018000430200084302000800F002F800F03CF8C7
:100190000AA090E8000C82448344AAF10107DA45E2
:1001A00001D100F031F8AFF2090EBAE80F0013F0F8
:1001B000010F18BFFB1A43F0010318471C19000078
:1001C0003C190000103A24BF78C878C1FAD8520709
:1001D00024BF30C830C144BF04680C6070470000C1
:1001E0000023002400250026103A28BF78C1FBD840
:1001F000520728BF30C148BF0B6070471FB501F0E0
:100200005DFC1FBD10B510BD00F0CFF81146FFF723
:10021000F5FF01F0B9FB00F0EDF803B4FFF7F2FFD2
:1002200003BC00F0F5F80000094880470948004782
:10023000FEE7FEE7FEE7FEE7FEE7FEE7FEE7FEE796
:10024000FEE7FEE704480549054A064B70470000F3
:100250007916000889010008C8000020C80600209F
:10026000C8020020C802002053EA020C00F0698096
:100270002DE9F04B4FF00006002B1FBFB3FA83F5BA
:1002800003FA05F424FA05F65E4012BF1643B2FAEB
:1002900082F502FA05F4C5F120051EBF22FA05FC1D
:1002A00044EA0C04203556EA044C4FEA144418BFC3
:1002B000641C4FF000084FF00009904271EB030CF2
:1002C00039D3002919BFB1FA81F701FA07F6B0FA5C
:1002D00080F700FA07F6C7F120071EBF20FA07FCD7
:1002E00046EA0C062037B6FBF4FCA7EB0507103FE7
:1002F00007F01F0BCBF120060CFA0BFB2CFA06F6CD
:1003000044BFB3460026202FA4BF5E464FF0000B2B
:100310005BEA060C08BF4FF0010B19EB0B09ABFBB6
:10032000027C48EB0608C01B06FB02CC0BFB03CC8F
:1003300071EB0C01C1E70B46024641464846BDE859
:10034000F08B13B54FF000004FF00001AFF30080C9
:10035000BDE81C4070474FF0000200B513469446BC
:100360009646203922BFA0E80C50A0E80C50B1F10D
:100370002001BFF4F7AF090728BFA0E80C5048BF21
:100380000CC05DF804EB890028BF40F8042B08BFBF
:10039000704748BF20F8022B11F0804F18BF00F8BB
:1003A000012B7047704770477047754600F02CF876
:1003B000AE4605006946534620F00700854618B052
:1003C00020B5FFF73FFFBDE820404FF000064FF09B
:1003D00000074FF000084FF0000B21F00701AC467A
:1003E000ACE8C009ACE8C009ACE8C009ACE8C00999
:1003F0008D46704710B50446AFF300802046BDE837
:100400001040FFF70ABF000000487047640000205A
:1004100001491820ABBEFEE7260002007047FEE748
:10042000704772B6FEE700002DE9F84FDFF8BCA177
:100430000022012503264FF00F090AF1040BAAF14F
:10044000040E00BF0B6805FA02F42340A34270D1EA
:100450000F7907F00307012F01D0022F16D187680B
:100460004FEA420806FA08FC27EA0C07D1F80CC04C
:100470000CFA08FC4CEA070CC0F808C04768A74310
:100480000C79C4F3001494403C4344600C79E44379
:10049000A4070AD0C4684FEA420C06FA0CF7BC4322
:1004A0008F6807FA0CF72743C7600C7904F0030440
:1004B000022C12D1D40800EB840CDCF82040570742
:1004C000FF0E09FA07F824EA0804D1F8108008FAA8
:1004D00007F848EA0408CCF8208004684FEA420C88
:1004E00006FA0CF7BC430F7907F0030707FA0CF77D
:1004F000274307604C6814F4403F70D03C4C276899
:1005000047F480472760246822F0030704F48044FE
:100510000094384C07EB040CDCF8084897074FEAC6
:10052000177809FA08F7BC43334FB84202D10027C5
:1005300024E054E0314FB84201D101271EE0304F92
:10054000B84201D1022719E02E4FB84201D103274A
:1005500014E02D4FB84201D104270FE02B4FB842D1
:1005600001D105270AE02A4FB84201D1062705E04C
:10057000284FB84201D1072700E0082707FA08F7FB
:100580002743CCF80878DAF800405746D1F804C081
:100590009C435FEACC2C00D51C433C60DBF8004058
:1005A0005F46D1F804C09C435FEA8C2C00D51C4305
:1005B0003C60DEF800407746D1F804C09C435FEA17
:1005C0008C3C00D51C433C60084F083F3C68D1F888
:1005D00004C09C435FEACC3C00D51C433C60521CE9
:1005E000102AFFF42FAFBDE8F88F0000083C01404F
:1005F0004438024000300140000002400004024044
:1006000000080240000C02400010024000140240AA
:1006100000180240001C02400069084000D0012080
:1006200070470AB1816170470904FBE7014880689F
:10063000704700000C0000200248816802781144D5
:10064000816070470C0000200B4810B5016841F430
:1006500000710160016841F480610160016841F44A
:1006600080710160032000F06FF80F2000F006F8A1
:1006700000F024F8002010BD003C024070B50D4D84
:1006800004464FF47A712878B1FBF0F00A49096802
:10069000B1FBF0F000F004FB48B9102C07D20022A7
:1006A0002146501E00F030F800206C6070BD012023
:1006B00070BD00000C000020180000200A4808B59A
:1006C000016841F480410160006800F480400090BE
:1006D0000548001F016841F080510160006800F08A
:1006E0008050009008BD000044380240002809DB1B
:1006F00000F01F02012191404009800000F1E0203C
:10070000C0F8001170470000F0B40E4B1B680C4697
:10071000C3F30223C3F10705042D00D90425191DD5
:10072000072901D2002300E0DB1E012606FA05F1AD
:10073000491E214099409E40761E16403143F0BC30
:1007400001F012B90CED00E0064900F0070208685C
:100750004FF6FF03184040EA0220034A10430860A6
:10076000704700000CED00E00000FA052DE9F047AD
:100770000E46050065D0DFF81481D8F80000F7B206
:1007800000F00700B04207D288F80070D8F80000E7
:1007900000F00700B04254D128683D4C810712D5C3
:1007A000400703D5206840F4E05020602878000717
:1007B00003D5206840F4604020602068A96820F0DC
:1007C000F000084320602878C0072DD030496868C1
:1007D0000839012812D0022813D0032811D0096843
:1007E000890700292DDA216821F0030101432160E6
:1007F000FFF71CFF814641F2883A0EE00968890341
:10080000EFE709688901ECE7FFF710FFA0EB0901AA
:10081000514502D90320BDE8F0872068696800F0DF
:100820000C00B0EB810FEFD1D8F80010404601F07A
:100830000701B14207D90770006800F00700B04215
:1008400001D00120E7E72878400705D52068E9684E
:1008500020F4E050084320602878000706D520687F
:10086000296920F4604040EAC100206000F024F8CB
:100870002168084AC1F30311515CC8400649086069
:1008800006480068FFF7FAFE0020C4E7003C02407B
:1008900008380240C61A0008180000201000002086
:1008A00001490120C86470470000474201480068C0
:1008B0007047000018000020154810B5006810F0BF
:1008C0000C02144813D01449042A0FD0082A0ED160
:1008D0000F4C241F2268236802F03F025B0207D5F9
:1008E0002068C0F38810A0FB010106E0084610BD97
:1008F0002168C1F38811A1FB00010023FFF7B4FCBC
:100900002168C1F30141491C4900B0FBF1F010BD61
:10091000083802400024F40040787D012DE9F84FAA
:1009200004006ED02078DFF84C93C007A9F10405CD
:100930004AD009F104000168C1F38101012908D0FE
:100940000068C0F3810002280AD1D9F800004002F3
:1009500006D52868800337D560680028E1D033E0E9
:100960006068B0F5803F10D0B0F5A02F286810D097
:1009700020F480302860286820F480202860606897
:10098000A8B1FFF753FE06460DE0286840F480301A
:10099000F4E740F480202860F7E700BFFFF746FE49
:1009A000801B642873D828688003F7D50CE0FFF714
:1009B0003DFE064605E000BFFFF738FE801B6428B9
:1009C000F0D828688003F7D42078DFF8AC8280075D
:1009D0004FF0000A3ED5A748001D016811F00C0F2A
:1009E00008D00068C0F3810002280BD1D9F80000BC
:1009F000400207D42868800716D5E068012800D196
:100A000012E033E1E068B8B10120C8F80000FFF758
:100A10000DFE064605E000BFFFF708FE801B02281A
:100A2000C0D828688007F7D52868216920F0F80029
:100A300040EAC10028600DE0C8F800A0FFF7F6FD0D
:100A4000064604E0FFF7F2FD801B02281FD8286845
:100A50008007F7D42078000722D5864F8748616940
:100A6000703771B101210160FFF7E0FD064604E037
:100A7000FFF7DCFD801B022809D838688007F7D50E
:100A80000EE0C0F800A0FFF7D1FD064605E082E0C9
:100A9000FFF7CCFD801B02287DD838688007F7D48B
:100AA0002078400768D5DFF8CCB100270BF13C0B6C
:100AB000DBF80000C0000BD4DBF8001041F08051DF
:100AC000CBF80010DBF80000012700F08050009008
:100AD0006B4E3068C00510D4306840F480703060D0
:100AE000FFF7A4FD009005E0FFF7A0FD0099401A74
:100AF000022850D83068C005F6D55E4EA0686C3626
:100B000001280FD00528306810D020F00100306097
:100B1000306820F004003060A068B8B1FFF786FDAF
:100B200000900FE0306840F00100F4E740F004006E
:100B30003060F7E7FFF77AFD0099411A41F28830FB
:100B4000814266D830688007F4D50EE0FFF76EFD6D
:100B5000009007E0FFF76AFD0099411A41F28830E2
:100B6000814256D830688007F4D42FB1DBF80010EA
:100B700021F08051CBF80010A069C8B33D49091D90
:100B80000968C1F3810102294AD00228504607D0E2
:100B9000C8F8600000E03CE0FFF748FD04463BE099
:100BA0004746C8F86000FFF741FD064605E000BF74
:100BB000FFF73CFD801B02282BD828688001F7D462
:100BC000D4E907010843A16A2E4A490802EB014112
:100BD000626A41EA8211084394F82C1040EA0161EC
:100BE000C9F8001001203866FFF720FD044606E032
:100BF0003EE000BFFFF71AFD001B022809D8286855
:100C00008001F7D534E000BFFFF710FD001B02287C
:100C100002D90320BDE8F88F28688001F4D427E0CA
:100C20000128F7D0D9F80000E26900F48001914270
:100C30001CD1226A00F03F01914217D147F6C071E2
:100C4000626A0140B1EB821F10D1A26A4FF0FF33FC
:100C500000F4403103EB5202B1EB024F06D194F89D
:100C60002C1000F07060B0EB016F01D00120D1E7D3
:100C70000020CFE70438024000004742800E474280
:100C8000007000400000FFFF4FF0E02104280869D9
:100C900003D020F004000861704740F00400FAE738
:100CA00010B5401EB0F1807F01D3012010BD4FF080
:100CB000E02460610F21601700F056FE0020A06163
:100CC00007202061002010BD7047704710B590F8D4
:100CD0003C20012A22D0012280F83C20CA688C687E
:100CE00022F4407222434C6822F4806222430C6852
:100CF00022F4006222430C6922F4805222434C69A0
:100D000022F400522243C969002322F480420A439C
:100D100001684A6480F83C30002010BD022010BDFC
:100D200070B590F83C20012A32D0012480F83C4074
:100D3000022280F83D2003685A689D6822F0700600
:100D40000A6832435A60134B02689A4214D0B2F1D7
:100D5000804F11D0104B9A420ED0104B9A420BD0BC
:100D60000F4B9A4208D00F4B9A4205D00E4B9A4235
:100D700002D00E4B9A4204D1496825F080031943F2
:100D8000916080F83D40002180F83C10084670BD1D
:100D9000022070BD00000140000400400008004037
:100DA000000C0040000401400040014000180040D9
:100DB00010B5040003D094F83D0010B107E0012005
:100DC00010BD002084F83C00204600F01FF80220EF
:100DD00084F83D00211D206800F05CFC012084F8AF
:100DE000460084F83E0084F83F0084F8400084F810
:100DF000410084F8420084F8430084F8440084F8F9
:100E0000450084F83D00002010BD000008B50068D2
:100E10000B49884212D10B48016841F00201016080
:100E20000068002200F00200009011462E20FFF71B
:100E30006BFCBDE808402E20FFF758BC08BD000041
:100E4000000401404438024090F83D10012901D0CF
:100E500001207047022180F83D1000681149884246
:100E600014D0B0F1804F11D00F4988420ED00F49F5
:100E700088420BD00E49884208D00E49884205D0DE
:100E80000D49884202D00D49884204D1816801F0A1
:100E90000701062903D0016841F00101016000202B
:100EA00070470000000001400004004000080040BE
:100EB000000C0040000401400040014000180040C8
:100EC00070B5044690F83C000025012817D0012693
:100ED00084F83C60022084F83D002068826822F09B
:100EE000770222F47F4282600868502838D00DDCF7
:100EF00020284FD005DC90B3102811D14AE0022001
:100F000070BD302846D040280AD13BE060282FD061
:100F100070280DD0B0F5805F03D0B0F5005F12D01F
:100F2000012584F83D60002084F83C00284670BD0F
:100F3000CB68D1E90121206800F01DFC20688168A0
:100F400041F0770109E0CB68D1E90121206800F088
:100F500012FC2068816841F480418160E1E719E07A
:100F6000CA684968206800F0DBFC5021206806E070
:100F7000CA684968206800F0E4FC6021206800F03D
:100F800004FCCEE7CA684968206800F0C9FC40212B
:100F90002068F4E7226801461046F0E7704770B514
:100FA0000446006801694FF00005C943890715D45C
:100FB000C168C943890711D4E91E01610120207766
:100FC000206880698007204602D0FFF7E7FF04E031
:100FD00000F0ECF8204600F005FA2577206801695A
:100FE000C943490717D4C168C943490713D46FF0EF
:100FF00004010161022020772068806910F4407F9D
:10100000204602D0FFF7CAFF04E000F0CFF82046E8
:1010100000F0E8F9257720680169C943090716D46B
:10102000C168C943090712D46FF0080101610420A7
:1010300020772068C0698007204602D0FFF7AEFF06
:1010400004E000F0B3F8204600F0CCF925772068E2
:101050000169C943C90617D4C168C943C90613D475
:101060006FF010010161082020772068C06910F43A
:10107000407F204602D0FFF791FF04E000F096F891
:10108000204600F0AFF9257720680169C943C907F8
:1010900008D1C168C943C90704D1891E016120462E
:1010A00000F0A1F920680169C943090609D4C168A3
:1010B000C943090605D46FF0800101612046FFF79E
:1010C00003FE20680169C943490609D4C168C943C0
:1010D000490605D46FF040010161204600F084F913
:1010E00020680169C94389060BD4C168C9438906D0
:1010F00007D46FF0200101612046BDE87040FFF782
:10110000E4BD70BD10B586B0044614216846FFF7F3
:1011100022F90E492068884215D10D480021026845
:1011200042F480720260006800F480700590202014
:1011300000900220CDE901010320CDE903106946AA
:101140000448FFF771F906B010BD0000000401402B
:10115000303802400020024070B5044690F83C0050
:10116000002501280FD0012084F83C006AB1042A30
:101170000FD0082A11D00C2A13D00125002084F8A2
:101180003C00284670BD022070BD206800F006FBC0
:10119000F4E7206800F032FBF0E7206800F064FB21
:1011A000ECE7206800F094FBE8E70000074808B58A
:1011B0000068416A064A00911288114489B2009180
:1011C000416304484168491C416008BD1C0000207F
:1011D000080000200000002010B5040003D094F89F
:1011E0003D0010B107E0012010BD002084F83C0054
:1011F000204600F01EF8022084F83D00211D2068E2
:1012000000F048FA012084F8460084F83E0084F893
:101210003F0084F8400084F8410084F8420084F8DC
:10122000430084F8440084F8450084F83D00002021
:1012300010BD704730B500250446022249B104298B
:1012400012D008294CD094F84100012853D0012035
:1012500030BD94F83E000128F9D184F83E20206882
:10126000C26842F0020209E094F83F000128EED182
:1012700084F83F202068C26842F00402C260012264
:10128000206800F06BFA21492068214A884201D089
:10129000904203D1436C43F4004343642068884286
:1012A00013D0B0F1804F10D01A4988420DD01A499E
:1012B00088420AD01949884207D0904205D018497F
:1012C000884202D01749884204D1816801F00701A1
:1012D000062903D0016841F001010160284630BDB4
:1012E00094F840000128B2D184F840202068C268F8
:1012F00042F00802C2E784F841200C2901D0012500
:10130000ECE72068C26842F01002B7E70000014035
:10131000000401400004004000080040000C0040B0
:10132000004001400018004070B50D0004464FF029
:10133000000607D0042D0AD0082D0DD00C2D10D09A
:1013400001263FE02068C16821F002010DE020681D
:10135000C16821F0040108E02068C16821F008019B
:1013600003E02068C16821F01001C1600022294615
:10137000206800F0F3F9194B41F2111120688A102E
:10138000984202D0164B984209D1036A0B4206D10B
:10139000036A134203D1436C23F40043436420687F
:1013A000036A0B4206D1016A114203D1016821F0A0
:1013B0000101016001203DB1042D08D0082D09D0A4
:1013C00084F84100304670BD84F83E00FAE784F8A6
:1013D0003F00F7E784F84000F4E700000000014018
:1013E00000040140704770477047FEE770B50C4637
:1013F0000546FFF711F9012801D0002070BD2146F4
:101400002846FFF709F90128F9D0012070BD000036
:1014100070B586B014216846FEF79DFF2D48002464
:10142000016841F004010160016801F004010591C7
:10143000016841F080010160016801F080010591BF
:10144000016841F001010160016801F001010591AD
:10145000016841F040010160016801F0400105911F
:10146000016841F010010160016801F0100105916F
:10147000016841F4807101600068174E00F48070CB
:101480000590002203213046FFF7CBF84FF40050BF
:10149000CDE90004694611480294FEF7C5FF012515
:1014A000CDE9005469460E480294FEF7BDFF1C20AA
:1014B000CDE9000469460B480294FEF7B5FF03200E
:1014C0000090CDE90154694630460394FEF7ACFF25
:1014D00006B070BD303802400010024000080240E3
:1014E000000002400018024010B596B000240F948E
:1014F00010941194129413941C2108A81494FEF7CC
:101500002AFF20216846FEF726FF29482749016067
:101510000521C0E901144FF6FF71C0E903144461CD
:101520008461FFF745FC08B1FEF77BFF4FF4805064
:101530000F900FA91E48FFF7C3FC08B1FEF771FF1B
:101540001B48FFF749FE08B1FEF76BFF139413A980
:1015500017481494FFF7E4FB08B1FEF762FF302050
:10156000089040F6B830CDE909040B940C940D9422
:10157000002208A90E480E94FFF7EEFD08B1FEF711
:1015800050FF00944FF40050CDE9044002940194C0
:101590000394694606480794FFF798FB08B1FEF7E5
:1015A00040FF0348FFF7AEFD16B010BD0004014038
:1015B0001C000020FEE7FEE770477047FFF73CB8CD
:1015C00030B593B030216846FEF7C5FE14210CA853
:1015D000FEF7C1FE26480025016841F080510160F8
:1015E000006800F0805011902248016841F4804169
:1015F00001600068022400F48040119001200390F3
:1016000010200490009406940820CDE90750A820EB
:10161000CDE9090404200B906846FFF77FF908B173
:1016200072B6FEE70CA90F2081E831004FF4A050FC
:101630000F904FF48050109005210CA8FFF796F8FA
:1016400008B172B6FEE7FFF72BF9FFF72FF94FF459
:101650007A71B0FBF1F0FFF723FB0420FFF714FBD6
:1016600000221146501EFFF74FF813B030BD0000A6
:1016700040380240007000400248016841F47001A7
:101680000160704788ED00E00148FFF788BC00006A
:101690001C000020F0B50268254C264D264E274F31
:1016A000274B4FF0804CA04209D0604507D0A8429C
:1016B00005D0B04203D0B84201D0984204D122F004
:1016C000700E4A6842EA0E02A0421BD0604519D053
:1016D000A84217D0B04215D0B84213D0984211D0CA
:1016E000184DA8420ED0184DA8420BD0174DA84255
:1016F00008D0174DA84205D0164DA84202D0164D6D
:10170000A84203D122F44075CA682A434D6922F0E9
:1017100080022A4302608A68C2620A688262A0422A
:1017200001D0984201D10969016301214161F0BDF5
:10173000000001400004004000080040000C004090
:1017400000040140004001400044014000480140C5
:1017500000180040001C00400020004010B501F0BF
:101760001F030121046A99408C430462016A9A4074
:101770001143016210BD10B5846842EA032224F4CB
:101780007F440A432243826010BD826822F07002C7
:101790000A4342F00701816070470000F0B5026A19
:1017A00022F001020262036A42688469124E24F048
:1017B00073050C682C4323F002058B682B430D4DF9
:1017C000A84201D0B04205D123F00807CB683B43C3
:1017D00023F00403A84201D0B04205D14D6922F4A0
:1017E000407215438A692A434260846149684163B3
:1017F0000362F0BD0000014000040140F0B5026A40
:1018000022F010020262026A436884690D6824F4BF
:10181000E64444EA05248D6822F0200242EA0512DB
:101820000F4D104EA84201D0B04206D1CF6822F031
:10183000800242EA071222F04002A84201D0B042E0
:1018400007D14D6923F4406343EA85038D6943EA78
:10185000850343608461496881630262F0BD0000D2
:101860000000014000040140F0B5026A22F48072D9
:101870000262026A4368C46922F4007224F07305AC
:101880000C68124E2C438D6842EA05220E4DA84288
:1018900001D0B04206D1CF6822F4006242EA0722AA
:1018A00022F48062A84201D0B04207D14D6923F4EE
:1018B000405343EA05138D6943EA05134360C4614D
:1018C0004968C1630262F0BD0000014000040140AC
:1018D00030B5026A22F480520262046A4268C36927
:1018E0000D6823F4E64343EA05238D6824F400548D
:1018F00044EA0534084DA84202D0084DA84204D15C
:101900004D6922F4804242EA85124260C36149680F
:101910000164046230BD0000000001400004014089
:1019200010B5036A046A24F001040462846924F097
:10193000F00444EA021423F00A020A4384610262BA
:1019400010BD10B5036A23F0100303628369046AB3
:1019500023F4704343EA023224F0A00343EA011166
:101960008261016210BDFEE70907090E002804DB51
:1019700000F1E02080F80014704700F00F0000F143
:10198000E02080F8141D7047FEF75EFEFFF718FE9A
:10199000FFF73EFDFFF7A8FD4048FFF755FA00218D
:1019A0003E48FFF747FCDFF8F8B0002211465846E2
:1019B000FFF7D4FE3B4D3C4F3C4C40F6AC59002663
:1019C0004FF0010A4FF4FA3801213948FFF70EFDB4
:1019D000012806D166606670012200215846FFF793
:1019E000BDFE04213846FFF701FD012807D12888F4
:1019F000323828802888322801D2322028804FF4BB
:101A000000512C48FFF7F2FC012807D128886430E8
:101A1000288029884846814200D9288008213846F4
:101A2000FFF7E4FC012807D1207860B101221146BC
:101A30002148FEF7F6FD267010213846FFF7D6FC48
:101A4000012808D015E0002201211B48FEF7E9FD1E
:101A500084F800A0F0E76078012813D00122022169
:101A60001548FEF7DEFD00210C48FFF75DFC84F809
:101A700001A060684045A7D3002211465846FFF7F1
:101A80006DFEA1E7002202210B48FEF7CAFD0021EE
:101A90000248FFF7CFFB6670EBE700001C00002058
:101AA000000401400800002000180240000000204F
:101AB0000000024000080240001002404FF0407059
:101AC000E1EE100A70470000000000000000010273
:101AD0000304060708090000F81A000800000020A7
:101AE0001C000000C4010008141B00081C0000209A
:101AF000AC060000E001000800000000000000004B
:101B00002C01000001000000100000000000000097
:041B10000024F400B9
:040000050800018965
:00000001FF
